{
  "transactions": [
    {
      "hash": "0x8ae1b40b13bc74a71ca75ee4d92abd6b159f51f078ffa64f60d4084d57843bff",
      "transactionType": "CALL",
      "contractName": null,
      "contractAddress": "0x8103b0a8a00be2ddc778e6e7eaa21791cd364625",
      "function": "createSubscription()",
      "arguments": [],
      "transaction": {
        "from": "0x87a5061119e70ad9d445ae96fa80c8c5bbc04b59",
        "to": "0x8103b0a8a00be2ddc778e6e7eaa21791cd364625",
        "gas": "0x1558c",
        "value": "0x0",
        "input": "0xa21a23e4",
        "nonce": "0x1",
        "chainId": "0xaa36a7"
      },
      "additionalContracts": [],
      "isFixedGasLimit": false
    },
    {
      "hash": "0xb521fa426aa92aeb0c3947b60e2b19c4c3c25aed6ff48821dbe54e6412fd529c",
      "transactionType": "CALL",
      "contractName": "LinkToken",
      "contractAddress": "0x779877a7b0d9e8603169ddbd7836e478b4624789",
      "function": "transferAndCall(address,uint256,bytes)",
      "arguments": [
        "0x8103B0A8A00be2DDC778e6e7eaa21791Cd364625",
        "3000000000000000000",
        "0x0000000000000000000000000000000000000000000000000000000000002e45"
      ],
      "transaction": {
        "from": "0x87a5061119e70ad9d445ae96fa80c8c5bbc04b59",
        "to": "0x779877a7b0d9e8603169ddbd7836e478b4624789",
        "gas": "0x1b43f",
        "value": "0x0",
        "input": "0x4000aea00000000000000000000000008103b0a8a00be2ddc778e6e7eaa21791cd36462500000000000000000000000000000000000000000000000029a2241af62c0000000000000000000000000000000000000000000000000000000000000000006000000000000000000000000000000000000000000000000000000000000000200000000000000000000000000000000000000000000000000000000000002e45",
        "nonce": "0x2",
        "chainId": "0xaa36a7"
      },
      "additionalContracts": [],
      "isFixedGasLimit": false
    },
    {
      "hash": "0x778bba81bd0d881036032527b91d1ca20dec3e0a3389c0c0dc97a12d3c70aa4b",
      "transactionType": "CREATE",
      "contractName": "Raffle",
      "contractAddress": "0xebee14ed1a5f7c279d0ffcac452820e485a1ba84",
      "function": null,
      "arguments": [
        "10000000000000000",
        "30",
        "0x8103B0A8A00be2DDC778e6e7eaa21791Cd364625",
        "0x787d74caea10b2b357790d5b5247c2f63d1d91572a9846f780606e4d953677ae",
        "11845",
        "500000"
      ],
      "transaction": {
        "from": "0x87a5061119e70ad9d445ae96fa80c8c5bbc04b59",
        "gas": "0x13ea50",
        "value": "0x0",
        "input": "0x61014060405234801561001157600080fd5b50604051620012a0380380620012a0833981016040819052610032916101f0565b8333806000816100895760405162461bcd60e51b815260206004820152601860248201527f43616e6e6f7420736574206f776e657220746f207a65726f000000000000000060448201526064015b60405180910390fd5b600080546001600160a01b0319166001600160a01b03848116919091179091558116156100b9576100b981610147565b5050506001600160a01b0381166100e35760405163d92e233d60e01b815260040160405180910390fd5b600280546001600160a01b0319166001600160a01b0392831617905560809690965260a0949094529190931660c05260e0929092526001600160401b039091166101005263ffffffff16610120526005805460ff60a01b191690554260045561027b565b336001600160a01b0382160361019f5760405162461bcd60e51b815260206004820152601760248201527f43616e6e6f74207472616e7366657220746f2073656c660000000000000000006044820152606401610080565b600180546001600160a01b0319166001600160a01b0383811691821790925560008054604051929316917fed8889f560326eb138920d842192f0eb3dd22b4f139c87a2c57538e05bae12789190a350565b60008060008060008060c0878903121561020957600080fd5b86516020880151604089015191975095506001600160a01b038116811461022f57600080fd5b6060880151608089015191955093506001600160401b038116811461025357600080fd5b60a088015190925063ffffffff8116811461026d57600080fd5b809150509295509295509295565b60805160a05160c05160e0516101005161012051610fc8620002d860003960006105780152600061054701526000610521015260006104e7015260008181610491015261066701526000818160fc01526103340152610fc86000f3fe6080604052600436106100e85760003560e01c80635e6c102e1161008a5780639eccacf6116100595780639eccacf614610268578063c1c244e814610288578063e55ae4e81461029d578063f2fde38b146102bd57600080fd5b80635e6c102e146101e757806379ba5097146102155780638da5cb5b1461022a5780638ea981171461024857600080fd5b80631fe543e3116100c65780631fe543e31461016b5780632cfcc5391461018d5780634585e33b14610195578063473f1ddc146101b557600080fd5b806309bc33a7146100ed5780630ea3df381461012f578063115cbaf514610144575b600080fd5b3480156100f957600080fd5b507f00000000000000000000000000000000000000000000000000000000000000005b6040519081526020015b60405180910390f35b34801561013b57600080fd5b5060035461011c565b34801561015057600080fd5b50600554600160a01b900460ff166040516101269190610c2b565b34801561017757600080fd5b5061018b610186366004610c53565b6102dd565b005b61018b610332565b3480156101a157600080fd5b5061018b6101b0366004610cd2565b61041f565b3480156101c157600080fd5b506005546001600160a01b03165b6040516001600160a01b039091168152602001610126565b3480156101f357600080fd5b50610207610202366004610d5a565b61065f565b604051610126929190610e51565b34801561022157600080fd5b5061018b61070c565b34801561023657600080fd5b506000546001600160a01b03166101cf565b34801561025457600080fd5b5061018b610263366004610e74565b6107b6565b34801561027457600080fd5b506002546101cf906001600160a01b031681565b34801561029457600080fd5b5060045461011c565b3480156102a957600080fd5b506101cf6102b8366004610ea4565b6108a8565b3480156102c957600080fd5b5061018b6102d8366004610e74565b6108d8565b6002546001600160a01b031633146103225760025460405163073e64fd60e21b81523360048201526001600160a01b0390911660248201526044015b60405180910390fd5b61032d8383836108ec565b505050565b7f00000000000000000000000000000000000000000000000000000000000000003410156103735760405163246b904d60e01b815260040160405180910390fd5b6000600554600160a01b900460ff16600181111561039357610393610c15565b146103b15760405163349289c560e21b815260040160405180910390fd5b6003805460018101825560009182527fc2575a0e9e593c00f959f8c92f12db2869c3395a3b0502d05e2516446f71f85b0180546001600160a01b0319163390811790915560405190917f819fbd717c9d0b421352c5116a644ca68ba176960c33f406f08d98a27370ca2791a2565b60006104396040518060200160405280600081525061065f565b5090508061048f57600354600554479190600160a01b900460ff16600181111561046557610465610c15565b604051632c2193d560e11b8152600481019390935260248301919091526044820152606401610319565b7f0000000000000000000000000000000000000000000000000000000000000000600454426104be9190610ebd565b11156104c957600080fd5b600580546001919060ff60a01b1916600160a01b83021790555060007f00000000000000000000000000000000000000000000000000000000000000006001600160a01b0316639b1c385e6040518060c001604052807f000000000000000000000000000000000000000000000000000000000000000081526020017f00000000000000000000000000000000000000000000000000000000000000008152602001600361ffff1681526020017f000000000000000000000000000000000000000000000000000000000000000063ffffffff168152602001600163ffffffff1681526020016105c9604051806020016040528060011515815250610a2c565b8152506040518263ffffffff1660e01b81526004016105e89190610ee4565b6020604051808303816000875af1158015610607573d6000803e3d6000fd5b505050506040513d601f19601f8201168201806040525081019061062b9190610f41565b60405190915081907fcd6e45c8998311cab7e9d4385596cac867e20a0587194b954fa3a731c93ce78b90600090a250505050565b6000606060007f0000000000000000000000000000000000000000000000000000000000000000600454426106949190610ebd565b101590506000600560149054906101000a900460ff1660018111156106bb576106bb610c15565b600354901591504715159015158380156106d25750825b80156106db5750815b80156106e45750805b60408051808201909152600381526203078360ec1b6020820152909890975095505050505050565b6001546001600160a01b0316331461075f5760405162461bcd60e51b815260206004820152601660248201527526bab9ba10313290383937b837b9b2b21037bbb732b960511b6044820152606401610319565b60008054336001600160a01b0319808316821784556001805490911690556040516001600160a01b0390921692909183917f8be0079c531659141344cd1fd0a4f28419497f9722a3daafe3b4186f6b6457e091a350565b6000546001600160a01b031633148015906107dc57506002546001600160a01b03163314155b1561082d57336107f46000546001600160a01b031690565b60025460405163061db9c160e01b81526001600160a01b0393841660048201529183166024830152919091166044820152606401610319565b6001600160a01b0381166108545760405163d92e233d60e01b815260040160405180910390fd5b600280546001600160a01b0319166001600160a01b0383169081179091556040519081527fd1a6a14209a385a964d036e404cb5cfb71f4000cdb03c9366292430787261be69060200160405180910390a150565b6000600382815481106108bd576108bd610f5a565b6000918252602090912001546001600160a01b031692915050565b6108e0610a9d565b6108e981610af2565b50565b6003546000908383838161090257610902610f5a565b905060200201356109139190610f70565b905060006003828154811061092a5761092a610f5a565b600091825260208083209190910154600580546001600160a81b0319166001600160a01b039092169182179055604080519384529183019182905291519192506109779160039190610b9b565b50426004556040516001600160a01b038216907fb112587e57bfa970257f3d54fc52859c6300f6bd7a982462c320fed45c2530ed90600090a26000816001600160a01b03164760405160006040518083038185875af1925050503d80600081146109fd576040519150601f19603f3d011682016040523d82523d6000602084013e610a02565b606091505b5050905080610a245760405163a1d04b3960e01b815260040160405180910390fd5b505050505050565b60607f92fd13387c7fe7befbc38d303d6468778fb9731bc4583f17d92989c6fcfdeaaa82604051602401610a6591511515815260200190565b60408051601f198184030181529190526020810180516001600160e01b03166001600160e01b03199093169290921790915292915050565b6000546001600160a01b03163314610af05760405162461bcd60e51b815260206004820152601660248201527527b7363c9031b0b63630b1363290313c9037bbb732b960511b6044820152606401610319565b565b336001600160a01b03821603610b4a5760405162461bcd60e51b815260206004820152601760248201527f43616e6e6f74207472616e7366657220746f2073656c660000000000000000006044820152606401610319565b600180546001600160a01b0319166001600160a01b0383811691821790925560008054604051929316917fed8889f560326eb138920d842192f0eb3dd22b4f139c87a2c57538e05bae12789190a350565b828054828255906000526020600020908101928215610bf0579160200282015b82811115610bf057825182546001600160a01b0319166001600160a01b03909116178255602090920191600190910190610bbb565b50610bfc929150610c00565b5090565b5b80821115610bfc5760008155600101610c01565b634e487b7160e01b600052602160045260246000fd5b6020810160028310610c4d57634e487b7160e01b600052602160045260246000fd5b91905290565b600080600060408486031215610c6857600080fd5b83359250602084013567ffffffffffffffff80821115610c8757600080fd5b818601915086601f830112610c9b57600080fd5b813581811115610caa57600080fd5b8760208260051b8501011115610cbf57600080fd5b6020830194508093505050509250925092565b60008060208385031215610ce557600080fd5b823567ffffffffffffffff80821115610cfd57600080fd5b818501915085601f830112610d1157600080fd5b813581811115610d2057600080fd5b866020828501011115610d3257600080fd5b60209290920196919550909350505050565b634e487b7160e01b600052604160045260246000fd5b600060208284031215610d6c57600080fd5b813567ffffffffffffffff80821115610d8457600080fd5b818401915084601f830112610d9857600080fd5b813581811115610daa57610daa610d44565b604051601f8201601f19908116603f01168101908382118183101715610dd257610dd2610d44565b81604052828152876020848701011115610deb57600080fd5b826020860160208301376000928101602001929092525095945050505050565b6000815180845260005b81811015610e3157602081850181015186830182015201610e15565b506000602082860101526020601f19601f83011685010191505092915050565b8215158152604060208201526000610e6c6040830184610e0b565b949350505050565b600060208284031215610e8657600080fd5b81356001600160a01b0381168114610e9d57600080fd5b9392505050565b600060208284031215610eb657600080fd5b5035919050565b81810381811115610ede57634e487b7160e01b600052601160045260246000fd5b92915050565b60208152815160208201526020820151604082015261ffff60408301511660608201526000606083015163ffffffff80821660808501528060808601511660a0850152505060a083015160c080840152610e6c60e0840182610e0b565b600060208284031215610f5357600080fd5b5051919050565b634e487b7160e01b600052603260045260246000fd5b600082610f8d57634e487b7160e01b600052601260045260246000fd5b50069056fea26469706673582212208b5d3495b7aa7d067932f12c754a91fac028ce38a2e316b6528c465fc3f124e364736f6c63430008130033000000000000000000000000000000000000000000000000002386f26fc10000000000000000000000000000000000000000000000000000000000000000001e0000000000000000000000008103b0a8a00be2ddc778e6e7eaa21791cd364625787d74caea10b2b357790d5b5247c2f63d1d91572a9846f780606e4d953677ae0000000000000000000000000000000000000000000000000000000000002e45000000000000000000000000000000000000000000000000000000000007a120",
        "nonce": "0x3",
        "chainId": "0xaa36a7"
      },
      "additionalContracts": [],
      "isFixedGasLimit": false
    },
    {
      "hash": "0x7b6a874080748a9cbc495718eee409726ca3400b2a316002b9b0f034a38bb037",
      "transactionType": "CALL",
      "contractName": null,
      "contractAddress": "0x8103b0a8a00be2ddc778e6e7eaa21791cd364625",
      "function": "addConsumer(uint64,address)",
      "arguments": [
        "11845",
        "0xEbEe14Ed1A5F7c279d0FfCAC452820e485a1ba84"
      ],
      "transaction": {
        "from": "0x87a5061119e70ad9d445ae96fa80c8c5bbc04b59",
        "to": "0x8103b0a8a00be2ddc778e6e7eaa21791cd364625",
        "gas": "0x21eb0",
        "value": "0x0",
        "input": "0x7341c10c0000000000000000000000000000000000000000000000000000000000002e45000000000000000000000000ebee14ed1a5f7c279d0ffcac452820e485a1ba84",
        "nonce": "0x4",
        "chainId": "0xaa36a7"
      },
      "additionalContracts": [],
      "isFixedGasLimit": false
    }
  ],
  "receipts": [
    {
      "status": "0x1",
      "cumulativeGasUsed": "0x861204",
      "logs": [
        {
          "address": "0x8103b0a8a00be2ddc778e6e7eaa21791cd364625",
          "topics": [
            "0x464722b4166576d3dcbba877b999bc35cf911f4eaf434b7eba68fa113951d0bf",
            "0x0000000000000000000000000000000000000000000000000000000000002e45"
          ],
          "data": "0x00000000000000000000000087a5061119e70ad9d445ae96fa80c8c5bbc04b59",
          "blockHash": "0xd6fe9ac8bd3c0fe938eb99ac439d52fe8082dcaca77f76ac374fd47646c31dc7",
          "blockNumber": "0x5c214b",
          "transactionHash": "0x8ae1b40b13bc74a71ca75ee4d92abd6b159f51f078ffa64f60d4084d57843bff",
          "transactionIndex": "0x43",
          "logIndex": "0x81",
          "removed": false
        }
      ],
      "logsBloom": "0x0000000000000000000001000000000000000000000000000000000000000000010000000000000000000000000000000000000000000000000000000000000000000000000000000000000000000000000000000000000000000000000000000000000000000000000000000000000000000000000000000000010000000000000000000c000020000000000000000000000000000000000000000000000000000000000000000000000000000000000000000000000000000000000000000000000000000000200000000000000000000000000000000020000000000000000000000000000000000000000000000000080000000000000000000000000000",
      "type": "0x2",
      "transactionHash": "0x8ae1b40b13bc74a71ca75ee4d92abd6b159f51f078ffa64f60d4084d57843bff",
      "transactionIndex": "0x43",
      "blockHash": "0xd6fe9ac8bd3c0fe938eb99ac439d52fe8082dcaca77f76ac374fd47646c31dc7",
      "blockNumber": "0x5c214b",
      "gasUsed": "0xe98a",
      "effectiveGasPrice": "0x51d3d65fd",
      "from": "0x87a5061119e70ad9d445ae96fa80c8c5bbc04b59",
      "to": "0x8103b0a8a00be2ddc778e6e7eaa21791cd364625",
      "contractAddress": null
    },
    {
      "status": "0x1",
      "cumulativeGasUsed": "0x873c4e",
      "logs": [
        {
          "address": "0x779877a7b0d9e8603169ddbd7836e478b4624789",
          "topics": [
            "0xddf252ad1be2c89b69c2b068fc378daa952ba7f163c4a11628f55a4df523b3ef",
            "0x00000000000000000000000087a5061119e70ad9d445ae96fa80c8c5bbc04b59",
            "0x0000000000000000000000008103b0a8a00be2ddc778e6e7eaa21791cd364625"
          ],
          "data": "0x00000000000000000000000000000000000000000000000029a2241af62c0000",
          "blockHash": "0xd6fe9ac8bd3c0fe938eb99ac439d52fe8082dcaca77f76ac374fd47646c31dc7",
          "blockNumber": "0x5c214b",
          "transactionHash": "0xb521fa426aa92aeb0c3947b60e2b19c4c3c25aed6ff48821dbe54e6412fd529c",
          "transactionIndex": "0x44",
          "logIndex": "0x82",
          "removed": false
        },
        {
          "address": "0x779877a7b0d9e8603169ddbd7836e478b4624789",
          "topics": [
            "0xe19260aff97b920c7df27010903aeb9c8d2be5d310a2c67824cf3f15396e4c16",
            "0x00000000000000000000000087a5061119e70ad9d445ae96fa80c8c5bbc04b59",
            "0x0000000000000000000000008103b0a8a00be2ddc778e6e7eaa21791cd364625"
          ],
          "data": "0x00000000000000000000000000000000000000000000000029a2241af62c0000000000000000000000000000000000000000000000000000000000000000004000000000000000000000000000000000000000000000000000000000000000200000000000000000000000000000000000000000000000000000000000002e45",
          "blockHash": "0xd6fe9ac8bd3c0fe938eb99ac439d52fe8082dcaca77f76ac374fd47646c31dc7",
          "blockNumber": "0x5c214b",
          "transactionHash": "0xb521fa426aa92aeb0c3947b60e2b19c4c3c25aed6ff48821dbe54e6412fd529c",
          "transactionIndex": "0x44",
          "logIndex": "0x83",
          "removed": false
        },
        {
          "address": "0x8103b0a8a00be2ddc778e6e7eaa21791cd364625",
          "topics": [
            "0xd39ec07f4e209f627a4c427971473820dc129761ba28de8906bd56f57101d4f8",
            "0x0000000000000000000000000000000000000000000000000000000000002e45"
          ],
          "data": "0x000000000000000000000000000000000000000000000000000000000000000000000000000000000000000000000000000000000000000029a2241af62c0000",
          "blockHash": "0xd6fe9ac8bd3c0fe938eb99ac439d52fe8082dcaca77f76ac374fd47646c31dc7",
          "blockNumber": "0x5c214b",
          "transactionHash": "0xb521fa426aa92aeb0c3947b60e2b19c4c3c25aed6ff48821dbe54e6412fd529c",
          "transactionIndex": "0x44",
          "logIndex": "0x84",
          "removed": false
        }
      ],
      "logsBloom": "0x0000001400000000000000000000000000000000000000020000000002000000000000000000800000000000000000000000000000000000000000000000000000000000000000000000000800100000000000000000000000002000080000000000000000000000000000000000000000000000400000000000011000000000000000000c000020000000000000800010000020000000000000000000000000000000000000000000000000000000000000000000000000000400000000000000000002000000000000000000000000000000000000000120000000000000000000000000000000000000000800000000080000000000000000000000000000",
      "type": "0x2",
      "transactionHash": "0xb521fa426aa92aeb0c3947b60e2b19c4c3c25aed6ff48821dbe54e6412fd529c",
      "transactionIndex": "0x44",
      "blockHash": "0xd6fe9ac8bd3c0fe938eb99ac439d52fe8082dcaca77f76ac374fd47646c31dc7",
      "blockNumber": "0x5c214b",
      "gasUsed": "0x12a4a",
      "effectiveGasPrice": "0x51d3d65fd",
      "from": "0x87a5061119e70ad9d445ae96fa80c8c5bbc04b59",
      "to": "0x779877a7b0d9e8603169ddbd7836e478b4624789",
      "contractAddress": null
    },
    {
      "status": "0x1",
      "cumulativeGasUsed": "0x968f4c",
      "logs": [],
      "logsBloom": "0x00000000000000000000000000000000000000000000000000000000000000000000000000000000000000000000000000000000000000000000000000000000000000000000000000000000000000000000000000000000000000000000000000000000000000000000000000000000000000000000000000000000000000000000000000000000000000000000000000000000000000000000000000000000000000000000000000000000000000000000000000000000000000000000000000000000000000000000000000000000000000000000000000000000000000000000000000000000000000000000000000000000000000000000000000000000",
      "type": "0x2",
      "transactionHash": "0x778bba81bd0d881036032527b91d1ca20dec3e0a3389c0c0dc97a12d3c70aa4b",
      "transactionIndex": "0x45",
      "blockHash": "0xd6fe9ac8bd3c0fe938eb99ac439d52fe8082dcaca77f76ac374fd47646c31dc7",
      "blockNumber": "0x5c214b",
      "gasUsed": "0xf52fe",
      "effectiveGasPrice": "0x51d3d65fd",
      "from": "0x87a5061119e70ad9d445ae96fa80c8c5bbc04b59",
      "to": null,
      "contractAddress": "0xebee14ed1a5f7c279d0ffcac452820e485a1ba84"
    },
    {
      "status": "0x1",
      "cumulativeGasUsed": "0x98025e",
      "logs": [
        {
          "address": "0x8103b0a8a00be2ddc778e6e7eaa21791cd364625",
          "topics": [
            "0x43dc749a04ac8fb825cbd514f7c0e13f13bc6f2ee66043b76629d51776cff8e0",
            "0x0000000000000000000000000000000000000000000000000000000000002e45"
          ],
          "data": "0x000000000000000000000000ebee14ed1a5f7c279d0ffcac452820e485a1ba84",
          "blockHash": "0xd6fe9ac8bd3c0fe938eb99ac439d52fe8082dcaca77f76ac374fd47646c31dc7",
          "blockNumber": "0x5c214b",
          "transactionHash": "0x7b6a874080748a9cbc495718eee409726ca3400b2a316002b9b0f034a38bb037",
          "transactionIndex": "0x46",
          "logIndex": "0x85",
          "removed": false
        }
      ],
      "logsBloom": "0x0000000000000000000000000000000000000000000000000000000000000000000000000000000000000000000000000000000000000000000000000000000000000000000000000000000000000000000000000000000000000000000000000000000000008000000000000000000000000000000000000000010000000000000000000c000020000000000000000000000000000000000000000000000000000000000000000000000080000000000000000000000000000000000000000000000000000000000000000000000000000000000000000020020000000000000000000000000000000000000000000000080000000000000000000000000000",
      "type": "0x2",
      "transactionHash": "0x7b6a874080748a9cbc495718eee409726ca3400b2a316002b9b0f034a38bb037",
      "transactionIndex": "0x46",
      "blockHash": "0xd6fe9ac8bd3c0fe938eb99ac439d52fe8082dcaca77f76ac374fd47646c31dc7",
      "blockNumber": "0x5c214b",
      "gasUsed": "0x17312",
      "effectiveGasPrice": "0x51d3d65fd",
      "from": "0x87a5061119e70ad9d445ae96fa80c8c5bbc04b59",
      "to": "0x8103b0a8a00be2ddc778e6e7eaa21791cd364625",
      "contractAddress": null
    }
  ],
  "libraries": [],
  "pending": [],
  "returns": {
    "0": {
      "internal_type": "contract Raffle",
      "value": "0xEbEe14Ed1A5F7c279d0FfCAC452820e485a1ba84"
    },
    "1": {
      "internal_type": "contract HelperConfig",
      "value": "0xC7f2Cf4845C6db0e1a1e91ED41Bcd0FcC1b0E141"
    }
  },
  "timestamp": 1717504154,
  "chain": 11155111,
  "commit": "b491339"
}